:020000040000FA
:1020000018EF3FF0FFFFFFFFFFFFFFFFFFFFFFFFA6
:10201000FFFFFFFFFFFFFFFFFFFFFFFFFFFFFFFFD0
:10202000FFFFFFFFFFFFFFFFFFFFFFFFFFFFFFFFC0
:10203000FFFFFFFFFFFFFFFFFFFFFFFFFFFFFFFFB0
:107E0000FFFFFFFFFFFFFFFFFFFFFFFFFFFFFFFF82
:107E1000FFFFFFFFFFFFFFFFFFFFFFFFFFFFFFFF72
:107E2000FFFFFFFFFFFFFFFFFFFFFFFFFFFFFFFF62
:107E3000036A000151EF3FF031EC3FF021EC3FF0DD
:107E40001200700ED36E000ED26E800E9B6E000E6E
:107E5000B56ED2AE2EEF3FF030EF3FF029EF3FF09E
:107E60001200000E8D6E000E8C6E000E896E000EDC
:107E70008A6E000E8B6E070E966E9268000E936EE1
:107E8000C70E946E95680F015E69C40E5D6F000E9B
:107E90005C6F070E5F6F2B0E5B6F000E856EF18EB1
:107EA00012001CEC3FF080B458EF3FF05AEF3FF067
:107EB00053EF3FF0032A03C08AFF070E026E170E2E
:107EC000016E6A0EE82EFED7012EFCD7022EFAD7DD
:107ED00000D080A46EEF3FF070EF3FF069EF3FF00D
:107EE000070E026E170E016E6A0EE82EFED7012EE7
:107EF000FCD7022EFAD700D053EF3FF000EF10F07E
:020000040030CA
:0400000003285F3C36
:0200060081FF78
:020000040020DA
:0800000000080D0500000000DE
:00000001FF
