:020000040000FA
:1020000043EF3FF0FFFFFFFFFFFFFFFFFFFFFFFF7B
:10201000FFFFFFFFFFFFFFFFFFFFFFFFFFFFFFFFD0
:107E8000FFFFFFFFFFFF036A000151EF3FF00F0EFE
:107E9000C112000E896E000E8A6E000E936E9284DF
:107EA000120047EC3FF080B458EF3FF05AEF3FF03C
:107EB00053EF3FF0032A03C08AFF070E026E170E2E
:107EC000016E6A0EE82EFED7012EFCD7022EFAD7DD
:107ED00000D080A46EEF3FF070EF3FF069EF3FF00D
:107EE000070E026E170E016E6A0EE82EFED7012EE7
:107EF000FCD7022EFAD700D053EF3FF000EF10F07E
:020000040030CA
:08000000000E181EFF8181FFB4
:020000040020DA
:08000000030D070200000000DF
:00000001FF
